:020000040800F2
:1000000008040020AD0100083B0A0008370A000878
:10001000390A0008F5010008610B00080000000023
:100020000000000000000000000000005F0A00085F
:10003000F7010008000000005D0A0008610A0008DE
:10004000C7010008C7010008C7010008C701000870
:10005000C7010008C7010008C7010008C701000860
:10006000C7010008C7010008C7010008C701000850
:10007000C7010008C7010008C7010008C701000840
:10008000C7010008C7010008C70100080000000000
:10009000000000000000000000000000C701000890
:1000A000C7010008C7010008C7010008C701000810
:1000B000C7010008C7010008C7010008C701000800
:1000C000C7010008C7010008C7010008C7010008F0
:1000D000C7010008C7010008C701000800000000B0
:1000E000C7010008C7010008C701000800000000A0
:1000F000000000000000000000000000C701000830
:1001000000000000C7010008C7010008C70100087F
:1001100000000000000000000000000000000000DF
:10012000C7010008C7010008C7010008C70100088F
:10013000C7010008000000000000000000000000EF
:10014000000000000000000000000000C7010008DF
:10015000C7010008C7010008C7010008C70100085F
:10016000C7010008C70100080000000000000000EF
:10017000000000000000000000000000000000007F
:1001800000000000C701000800000000000000009F
:10019000C7010008C7010008DFF80CD000F018F80C
:1001A00000480047810B00080804002006488047EB
:1001B00006480047FEE7FEE7FEE7FEE7FEE7FEE74C
:1001C000FEE7FEE7FEE7FEE70D0B000899010008D9
:1001D000064C074D06E0E06840F0010394E8070094
:1001E00098471034AC42F6D3FFF7DAFF000C000852
:1001F000200C0008FEE7704731B500F0D7F8044640
:1002000000F0D4F80099001B8842F9D338BD0000F3
:100210002DE9F84FDFF860B100224FF001084FF0F0
:10022000030A4FF00F090BF1040E00BF0B6808FA28
:1002300002F42340A3426ED14D68022D01D0122D4D
:100240000ED1D50800EB850CDCF820505607F70ED0
:1002500009FA07F6B5430E69BE402E43CCF820607C
:10026000066855000F790AFA05FC07F0030726EA2D
:100270000C06AF40374307604E68012E05D0022EB2
:1002800003D0112E01D0122E0ED18668CF6826EA37
:100290000C06AF40374387604668A6430C79C4F329
:1002A0000014944034434460C6688C6826EA0C0607
:1002B000AC403443C4604C68E40056D52F4C2568EC
:1002C00045F480452560246822F0030504F4804449
:1002D00000942B4C2E19D6F8084895072F0F09FAD1
:1002E00007F5AC43274DA84201D1002515E0264D66
:1002F000A84201D1012510E0244DA84201D10225D8
:100300000BE0234DA84201D1032506E0214DA84270
:1003100002D1042501E028E00725BD402543C6F8A9
:100320000858DBF800405D464E689C43F60300D554
:100330001C432C60DEF8004075464E689C43B603B3
:1003400000D51C432C600C4D08352C684E689C432E
:10035000F60200D51C432C60074D0C352C684E6806
:100360009C43B60200D51C432C60521C102AFFF49B
:100370005DAFBDE8F88F0000003C0140443802400A
:10038000003001400000024000040240000802402A
:10039000000C02400010024042694A40426170472E
:1003A0000AB1816170470904FBE700000148006859
:1003B000704700000400002002480168491C0160E9
:1003C00070470000040000200B4810B5016841F49C
:1003D00000710160016841F480610160016841F4CD
:1003E00080710160032000F069F8002000F006F839
:1003F00000F018F8002010BD003C024010B5044683
:1004000007484FF47A710068B0FBF1F000F0FBFA96
:1004100000222146501E00F031F8002010BD0000DF
:100420000000002010B5032000F048F8002211461B
:100430006FF00B0000F022F8002211466FF00A0066
:1004400000F01CF8002211466FF0090000F016F8C9
:1004500000221146501F00F011F800221146101F13
:1004600000F00CF800221146901E00F007F8002260
:10047000BDE810401146501EAFF30080F0B40E4BA3
:100480001B680C46C3F30223C3F10705042D00D9F2
:100490000425191D072901D2002300E0DB1E0126D7
:1004A00006FA05F1491E214099409E40761E1640ED
:1004B0003143F0BC00F0C2BA0CED00E0064900F098
:1004C000070208684FF6FF03184040EA0220034A7B
:1004D00010430860704700000CED00E00000FA05D2
:1004E0002DE9F047DFF8649105460F46D9F8000082
:1004F00000F00F01F8B28046B94208D2014689F8EF
:100500000010D9F8000000F00F00B84274D128782C
:100510004F4C800705D52068A96820F0F0000843FB
:1005200020602878C00759D04949686808390128EF
:100530001AD002281BD0032819D00968890700297E
:100540005ADA216821F0030101432160FFF72EFFF1
:100550006968064641F28830012911D002291DD070
:100560000329824627D035E009688903E7E709684F
:100570008901E4E7FFF71AFF811B514501D926E005
:1005800082462068C0F381000128F3D126E000BF35
:10059000FFF70CFF811B514501D918E08246206806
:1005A000C0F381000228F3D118E000BFFFF7FEFE80
:1005B000811B51450BD82068C0F381000328F5D179
:1005C0000CE000BFFFF7F2FE811B514502D903206A
:1005D000BDE8F087206810F00C0FF3D1D9F80010B7
:1005E000484601F00F01B94208D980F80080006840
:1005F00000F00F00B84201D00120E9E72878400759
:1006000005D52068E96820F4E05008432060287888
:10061000000706D52068296920F4604040EAC1003F
:10062000206000F021F82168F02292FAA2F201F095
:10063000F001B2FA82F2D140064A515CC840064944
:1006400008600020FFF7DAFE0020C1E7003C02400E
:1006500008380240F00B0008000000200148006844
:10066000704700000000002030B51948006810F005
:100670000C01184812D0441004290ED008290DD1BD
:100680001349091F0A6802F03F030A68550247F63A
:10069000C07204D5B4FBF3F003E0204630BDB0FBDC
:1006A000F3F00B680968134092FAA2F2B2FA82F2F0
:1006B000D34058434FF4403292FAA2F201F4403151
:1006C000B2FA82F2D140491C4900B0FBF1F030BDD2
:1006D000083802400024F4002DE9F84F0546DFF801
:1006E000FC920078A9F1040BC007ABF1040449D0D7
:1006F000D9F800104846C1F38101012908D00068EB
:10070000C0F3810002280AD1DBF80000400206D5C0
:100710002068800336D5686800286ED032E06868AB
:10072000B0F5803F10D0B0F5A02F206810D020F495
:1007300080302060206820F4802020606868A0B1AC
:10074000FFF734FE06460CE0206840F48030F4E702
:1007500040F480202060F7E7FFF728FE801B642824
:1007600071D820688003F7D50CE0FFF71FFE06461E
:1007700005E000BFFFF71AFE801B6428F0D8206850
:100780008003F7D42878964F80074FF0010A4FF086
:10079000000841D5D9F80010484611F00C0F08D0D8
:1007A0000068C0F3810002280AD1DBF80000400293
:1007B00006D42068800713D5E86801281DD10FE012
:1007C000E868D8B1C7F800A0FFF7F0FD064604E0DE
:1007D000FFF7ECFD801B0228C2D820688007F7D500
:1007E0002068F82292FAA2F22969B2FA82F220F085
:1007F000F8009140084320600EE0ECE0C7F800806C
:10080000FFF7D4FD064604E0FFF7D0FD801B022869
:1008100019D820688007F7D42878000724D57148B4
:10082000696989B1C0F800A0FFF7C0FD064604E081
:10083000FFF7BCFD801B022805D868486C300068B3
:100840008007F5D510E07AE0C0F80080FFF7AEFD34
:10085000064604E0FFF7AAFD801B02286FD85F4818
:100860006C3000688007F5D42878400753D55B4882
:100870003830016841F080510160006800F080501C
:1008800000905948016841F480710160FFF78EFDC6
:10089000064604E0FFF78AFD801B02284FD8524825
:1008A0000068C005F6D54D4EA868683601280FD0FF
:1008B0000528306810D020F001003060306820F04A
:1008C00004003060A868B8B1FFF770FD00900FE039
:1008D000306840F00100F4E740F004003060F7E7D2
:1008E000FFF764FD0099411A41F2883081426AD8CD
:1008F00030688007F4D50EE0FFF758FD009007E060
:10090000FFF754FD0099411A41F2883081425AD8CC
:1009100030688007F4D4A869E8B3D9F80010C1F3AF
:100920008101022957D00228C7F8608003D0FFF761
:100930003DFD05464AE0FFF739FD064605E042E089
:10094000FFF734FD801B02283DD820688001F7D4D2
:10095000D5E90701084347F6C07292FAA2F2696A24
:10096000B2FA82F29140AA6A4FF0FF3303EB5202CF
:100970004FF4403393FAA3F3B3FA83F39A4011434D
:1009800008434FF0706292FAA2F2E96AB2FA82F278
:100990009140084300E01CE0CBF80000C7F860A0DD
:1009A000FFF704FD054604E0FFF700FD401B0228A9
:1009B00009D820688001F7D50BE000BFFFF7F6FCEF
:1009C000401B022802D90320BDE8F88F206880016F
:1009D000F4D40020F8E70120F6E7000008380240D0
:1009E00000004742800E4742007000404FF0E02177
:1009F0000428086903D020F004000861704740F023
:100A00000400FAE7704710B5401EB0F1807F01D3B3
:100A1000012010BD4FF0E02460610F21601700F04D
:100A20000DF80020A06107202061002010BD10B546
:100A3000FFF7E8FF10BDFEE7FEE770470907090E64
:100A4000002806DA00F00F0000F1E02080F8141D05
:100A5000704700F1E02080F800147047704770473D
:100A600010B5FFF7A9FCBDE81040FFF7E0BF00009C
:100A700030B5244893B00025016841F080510160F1
:100A8000006800F0805011901F48016841F4404117
:100A900001600068022400F44040119001200090A1
:100AA000000401908001CDE90640082008904FF431
:100AB000A870099004200A900B906846FFF70CFE7E
:100AC00000B1FEE70CA90F2081E831004FF48050FF
:100AD0000F90109002210CA8FFF702FD00B1FEE775
:100AE000FFF7BCFD4FF47A71B0FBF1F0FFF78BFF1D
:100AF0000420FFF77BFF00221146501EFFF7BEFCCB
:100B000013B030BD4038024000700040104801680A
:100B100041F4700101600F48016841F0010101607A
:100B20000C4A00210832116002680B4B1A40026027
:100B3000031D0A4A1A60026822F4802202600548F6
:100B40000C30016002495806803908607047000087
:100B500088ED00E000380240FFFFF6FE1030002470
:100B6000FEE702E008C8121F08C1002AFAD1704748
:100B70007047002001E001C1121F002AFBD170471D
:100B800086B0FFF721FCFFF773FF174800250168C7
:100B900041F080010160016801F080010591016868
:100BA00041F0080101600068104E00F008004FF4A9
:100BB000704405902A4621463046FFF7F1FB01209C
:100BC000CDE900400220CDE9025069463046FFF7EA
:100BD0001FFB4FF4FA7521463046FFF7DDFB284630
:100BE000FFF70AFBF7E7000030380240000C024034
:100BF00000000000010203040102030406070809C3
:100C0000200C00080000002008000000620B000813
:100C1000280C00080800002000040000720B0008E7
:080C20000024F40000000000B4
:040000050800019955
:00000001FF
